:1000000015C1000043C1000041C100003FC1000014
:100010003DC100003BC1000039C1000037C10000F4
:1000200035C1000054C7000052C7000050C700008F
:100030002DC100002BC1000029C1000027C1000014
:1000400025C1000023C1000021C100001FC1000024
:100050001DC100001BC1000019C10000BDC500008A
:1000600015C10000C9C400009EC400000FC10000FB
:100070000DC100000BC1000009C1000007C1000054
:1000800005C1000003C1000001C10000FFC0000065
:10009000FDC00000FBC00000F9C00000E7C5000083
:1000A000F5C00000F3C00000F1C00000EFC0000088
:1000B000EDC00000EBC00000E9C00000E7C0000098
:1000C000E5C00000E3C00000E1C00000DFC00000A8
:1000D000DDC00000DBC00000D9C00000D7C00000B8
:1000E000D5C0000061056405530557055B059B05F8
:1000F00068056C05720576057A0580058405880516
:100100009B058E059205960500002100240027001E
:100110002A002D0030003300010100000401070116
:100120000A0100000A0B02090C0D0E080703040166
:1001300000000000000000000000000000000000BF
:10014000000000000000000000000000000012118C
:10015000100000000000000000000000000000008F
:100160000000000000000000000020002300260026
:1001700029002C002F0032000001000003010601BD
:10018000090100002200250028002B002E0031006C
:10019000340002010000050108010B0105050505F9
:1001A000070508080808020202020A0A08080404EF
:1001B000040401010101010101010303030303031D
:1001C0000303040707070C0C0C0C0C0C0C0C0202AC
:1001D000020206060606060606060B0B0B0B0B0BA9
:1001E0000B0B010210202008081020401020408036
:1001F00002010201080402010102040810204080EB
:100200008040201008040201800402018040201078
:1002100008040201080402010102040810204080C1
:1002200001020408102040800A0DEE0C11241FBEAC
:10023000CFEFD1E2DEBFCDBF00E00CBF12E0A0E007
:10024000B2E0E8EEF3E200E00BBF02C007900D92CF
:10025000AC34B107D9F724E0ACE4B2E001C01D92A0
:10026000A634B207E1F711E0C5E1D1E000E006C035
:1002700021970109802FFE010E94A210C431D107ED
:1002800080E00807A9F7F1D70C94E311B9CECF931A
:10029000DF93C0E0D2E08091FE029091FF0269916D
:1002A000DC01ED91FC910190F081E02D1995B2E017
:1002B000CA30DB0781F7DF91CF9108950895089543
:1002C000FC01538D448D252F30E0842F90E0821B5C
:1002D000930B541710F0CF96089501970895FC01E1
:1002E000918D828D981761F0828DDF01A80FB11D6D
:1002F0005D968C91928D9F5F9F73928F90E0089591
:100300008FEF9FEF0895FC01918D828D981731F04A
:10031000828DE80FF11D858D90E008958FEF9FEF9E
:100320000895FC01918D228D892F90E0805C9F4F74
:10033000821B91098F739927089584E693E0F1DF7A
:1003400021E0892B09F420E0822F0895FC01848D9F
:10035000DF01A80FB11DA35ABF4F2C91848D90E0EF
:1003600001968F739927848FA689B7892C93A089CA
:10037000B1898C91837080648C93938D848D981354
:1003800006C00288F389E02D80818F7D80830895E7
:10039000EF92FF920F931F93CF93DF93EC0181E0D5
:1003A000888F9B8D8C8D981305C0E889F989808191
:1003B00085FD25C0F62E0B8D10E00F5F1F4F0F73CC
:1003C0001127E02E8C8DE8120BC00FB607FCFACF78
:1003D000E889F989808185FFF5CFCE01B7DFF2CFBB
:1003E0008B8DFE01E80FF11DE35AFF4FF0829FB79E
:1003F000F8940B8FEA89FB89808180620AC09FB7DD
:10040000F894EE89FF896083E889F9898081837097
:10041000806480839FBF81E090E0DF91CF911F9146
:100420000F91FF90EF900895CF93DF93EC01888DAB
:100430008823C1F0EA89FB89808185FD05C0A889F0
:10044000B9898C9186FD0EC00FB607FCF5CF80816F
:1004500085FFF2CFA889B9898C9185FFEDCFCE01B8
:1004600075DFE8CFDF91CF91089580E090E0892B90
:1004700019F063DF811125C080E090E0892B41F005
:1004800080E090E0892B21F00E94000081111CC0C7
:1004900080E090E0892B41F080E090E0892B21F012
:1004A0000E940000811113C080E090E0892BA1F030
:1004B00080E090E0892B81F00E94000081110AC049
:1004C00008950E940000D8CF0E940000E1CF0E9452
:1004D0000000EACF0C94000008953FB7F894809193
:1004E000F0029091F102A091F202B091F30226B5D0
:1004F000A89B05C02F3F19F00196A11DB11D3FBF5C
:10050000BA2FA92F982F8827820F911DA11DB11DE9
:10051000BC01CD0142E0660F771F881F991F4A95E5
:10052000D1F708958F929F92AF92BF92CF92DF92B0
:10053000EF92FF926B017C01D0DF4B015C01C11493
:10054000D104E104F104E9F0C8DFDC01CB01881932
:100550009909AA09BB09883E9340A105B10578F322
:1005600021E0C21AD108E108F10888EE880E83E084
:10057000981EA11CB11CC114D104E104F10421F79F
:10058000DECFFF90EF90DF90CF90BF90AF909F9025
:100590008F90089585ED8093BC008091BC0084FD10
:1005A000FCCF10923F0308954091CC02262F30E0FB
:1005B000240F311D21323105DCF420913F0324301A
:1005C000C9F4FC0180E090E0861758F43091CC0229
:1005D0002191DC01A455BD4FA30FB11D2C930196B1
:1005E000F3CF8091CC02680F6093CC0280E0089535
:1005F00081E0089582E008950895E091F9028091E4
:10060000F802E81730F4F0E0E457FD4F808190E005
:1006100008958FEF9FEF08959091F9028091F8026D
:10062000981750F4E92FF0E0E457FD4F208130E0B7
:100630009F5F9093F90202C02FEF3FEFC901089529
:100640008091F80290E02091F902821B91090895AF
:10065000CF92DF92EF92FF920F931F93CF93DF938E
:100660007C01CB018A0120914003222389F0EB0118
:100670006B01C40ED51ECC15DD0561F06991D70163
:10068000ED91FC910190F081E02DC7011995F3CF18
:10069000642F8ADFC801DF91CF911F910F91FF90E6
:1006A000EF90DF90CF900895CF93DF931F92CDB757
:1006B000DEB76983209140032223D1F020916303A8
:1006C000203240F021E030E0FC013383228380E0DF
:1006D00090E014C080914103E82FF0E0EE5BFC4F06
:1006E000998190838F5F809341038093630304C05B
:1006F00061E0CE01019658DF81E090E00F90DF913C
:10070000CF9108952091FC023091FD0228173907FE
:1007100071F49091FA028091FB02981741F0E091F8
:10072000FA02F0E0E45BFD4F808190E008958FEFE6
:100730009FEF08951F93CF93DF93DC015C968D911B
:100740009C915D97009739F421E030E013963C933B
:100750002E9312973BC05196ED91FC915297509673
:100760002C915097322F30951FB75E964C915E9723
:10077000742F727041FD6095F8944081772311F0D9
:10078000422B01C043234083EC012197F1F748E05D
:10079000508160FF02C0522B01C053235083EC01F3
:1007A0002197F1F76695415099F78081772319F0E9
:1007B0008323808302C0282B20831FBF5C968D91EA
:1007C0009C915D970197F1F781E090E0DF91CF91E7
:1007D0001F9108952091FC023091FD0228173907DE
:1007E00069F48091FB022091FA0290E0805C9F4FB7
:1007F000821B910960E470E00C946D1080E090E041
:1008000008952091FC023091FD0228173907B9F4B0
:100810009091FA028091FB02981789F0E091FA0218
:10082000F0E0E45BFD4F80812091FA0230E02F5F21
:100830003F4F2F7333272093FA0290E008958FEFF4
:100840009FEF0895089580E090E00895E1E0F2E0E0
:1008500027E032E080E090E04191840F911D2E1757
:100860003F07D1F791958195910990930702809365
:1008700008020895E0E0F2E0838315821682E6DF45
:10088000E0910003F09101031994CF93DF93D82FE7
:100890006AE070E080E090E045DE8DE0EBDFC0E0F4
:1008A000CD1749F064E070E080E090E03BDE81E04D
:1008B000E1DFCF5FF5CFDF91CF910895EF92FF9207
:1008C0000F931F93CF93C82FCB017A0121E0209380
:1008D0004003C093620310924103109263039FD3BD
:1008E000C7019DD381E09FD380913F038111FCCF4D
:1008F00091E090933F0390933E038FEF80933D03ED
:1009000010923C0390933B0390931A0380911A0337
:10091000CC0FC82BC0931A0380911903813061F466
:100920001092190380911A038093BB008091BC0040
:1009300083FDF8CF85EC01C085EE8093BC008091EB
:100940003F038130E1F380913C03823018F48091C1
:100950003C0301C082E0ABE1B3E0ECE8F2E020E070
:10096000281721F09D9191932F5FFACF1092F902F1
:100970002093F80230E02330310564F481E094E004
:100980004BDE8C0181E094E047DE20E030E0382F40
:10099000020F131FC801CF911F910F91FF90EF908D
:1009A00008950E94DF111F920F920FB60F9211242B
:1009B0000BB60F922F933F934F935F936F937F9359
:1009C0008F939F93AF93BF93EF93FF9384E693E04E
:1009D000BDDCFF91EF91BF91AF919F918F917F917E
:1009E0006F915F914F913F912F910F900BBE0F90A0
:1009F0000FBE0F901F9018951F920F920FB60F9277
:100A000011240BB60F922F938F939F93EF93FF9325
:100A1000E0917403F09175038081E0917A03F09185
:100A20007B0382FD12C0908180917D038F5F8F7365
:100A300020917E03821751F0E0917D03F0E0EC59A4
:100A4000FC4F958F80937D0301C08081FF91EF91D2
:100A50009F918F912F910F900BBE0F900FBE0F9013
:100A60001F901895362F90E0FC01EE5DFE4F4491EB
:100A7000FC01EE51FE4F2491FC01E456FE4F94918F
:100A8000992309F46CC0442309F455C050E0FA01DD
:100A90003197E231F10508F04EC08827EE58FF4F3C
:100AA0008F4F0C94A210809180008F7707C08091A7
:100AB00080008F7D03C080918000877F80938000BD
:100AC0003AC084B58F7702C084B58F7D84BD33C0B2
:100AD0008091B0008F7703C08091B0008F7D8093AC
:100AE000B00029C0809190008F7707C0809190005E
:100AF0008F7D03C080919000877F809390001BC002
:100B00008091A0008F7707C08091A0008F7D03C0E7
:100B10008091A000877F8093A0000DC0809120016C
:100B20008F7707C0809120018F7D03C080912001C5
:100B3000877F80932001E92FF0E0EE0FFF1FEE5733
:100B4000FE4FA591B4919FB7F894311104C08C91D8
:100B50002095282302C0EC912E2B2C939FBF089543
:100B6000CF93DF9390E0FC01EE51FE4F2491FC0106
:100B7000E456FE4F8491882361F190E0880F991F1D
:100B8000FC01E85FFE4FC591D491FC01EE57FE4F8A
:100B9000A591B491611109C09FB7F89488812095FF
:100BA00082238883EC912E230BC0623061F49FB7BF
:100BB000F8948881322F309583238883EC912E2BF3
:100BC0002C939FBF06C08FB7F894E8812E2B288303
:100BD0008FBFDF91CF9108951F920F920FB60F92A2
:100BE00011242F933F938F939F93AF93BF93809143
:100BF000020390910303A0910403B0910503309187
:100C0000EF0223E0230F2D3720F40196A11DB11D23
:100C100005C026E8230F0296A11DB11D2093EF0207
:100C20008093020390930303A0930403B0930503FE
:100C30008091F0029091F102A091F202B091F30242
:100C40000196A11DB11D8093F0029093F102A09333
:100C5000F202B093F302BF91AF919F918F913F91B8
:100C60002F910F900FBE0F901F9018951F920F920B
:100C70000FB60F9211240BB60F922F933F934F9301
:100C80005F936F937F938F939F93AF93BF93EF93F4
:100C9000FF938091B900887F803609F49CC068F585
:100CA000883209F45BC090F4803109F454C038F400
:100CB000882309F4F6C0883009F44DC0F5C08831A6
:100CC00009F44CC0803209F45DC0EEC0803409F4F0
:100CD00068C048F4803309F455C0883309F0E4C093
:100CE00080933D03D8C0803509F44FC0883509F49E
:100CF0005DC0883409F0D8C0D6C0883909F4C7C0AF
:100D0000A8F4883709F467C038F4883609F463C05A
:100D1000803709F460C0C8C0883809F4B8C0803989
:100D200009F45FC0803809F0BFC05BC0803B09F4A4
:100D300086C038F4803A09F466C0883A09F47FC066
:100D4000B3C0803C09F4A7C0883C09F4A4C0883B28
:100D500009F48AC0A9C080911A0310C090913C0385
:100D600080913B03981770F5E0913C0381E08E0F72
:100D700080933C03F0E0E55EFC4F80818093BB00F4
:100D800085EC86C080933D038EC0E0913C0381E0FA
:100D90008E0F80933C038091BB00F0E0E55EFC4F3A
:100DA000808390913C0380913B036EC0E0913C03B3
:100DB00081E08E0F80933C038091BB00F0E0E55E04
:100DC000FC4F808380913E0381116DC081E0809350
:100DD000190384EA61C083E080933F031092EE021E
:100DE000CFCF8091EE02803208F051C0E091EE0248
:100DF00081E08E0F8093EE028091BB00F0E0E25321
:100E0000FD4F8083BDCF85EC8093BC0010923F03E3
:100E10008091EE02803230F4E091EE02F0E0E25395
:100E2000FD4F10826091EE0270E0E091F402F091CB
:100E3000F5028EEC92E019951092EE0235C084E036
:100E400080933F031092CD021092CC02E091F60203
:100E5000F091F70219958091CC02811105C081E0D3
:100E60008093CC021092AC02E091CD0281E08E0F13
:100E70008093CD02F0E0E455FD4F80818093BB006C
:100E80009091CD028091CC02981708F479CF85E833
:100E90008093BC0009C085EC8093BC0010923F0396
:100EA00003C010923D0376DBFF91EF91BF91AF91AC
:100EB0009F918F917F916F915F914F913F912F9172
:100EC0000F900BBE0F900FBE0F901F9018951F92A2
:100ED0000F920FB60F9211240BB60F922F933F93E0
:100EE0004F935F936F937F938F939F93AF93BF9332
:100EF000EF93FF93E091FC02F091FD02309709F42B
:100F000051C0968DA685B785858591FF04C09C91BB
:100F1000892329F447C09C91892309F043C0A38900
:100F2000B4899C918589809589238C93868997893A
:100F30000197F1F7608D718DA685B785558538E0ED
:100F400020E0CB010197F1F7822F90E095958795EE
:100F5000282F4C91452309F02068315091F7868D58
:100F600081FD20958091FB0290E001968F73992777
:100F70003091FA02381749F0A091FB02B0E0A45B6F
:100F8000BD4F2C938093FB0203C0868D8160868FBA
:100F9000828D938D0197F1F7A389B4899C918589FE
:100FA000892B8C93FF91EF91BF91AF919F918F917E
:100FB0007F916F915F914F913F912F910F900BBE59
:100FC0000F900FBE0F901F901895CF92DF92EF9267
:100FD000FF920F931F93CF93DF936C017A018B01E4
:100FE000C0E0D0E0CE15DF0581F0D8016D918D0114
:100FF000D601ED91FC910190F081E02DC60119958B
:10100000892B11F02196EECF7E01C701DF91CF91A0
:101010001F910F91FF90EF90DF90CF900895682F70
:1010200081E094E041CB282F30916303313208F006
:101030004AC080913F038111FCCF9091620342E04E
:1010400040933F0320933E032FEF20933D031092E4
:101050003C0330933B03E2E4F3E0ABE1B3E020E098
:10106000321721F041914D932F5FFACF10921A035E
:1010700020911A03990F922B90931A0390911903C0
:10108000913061F41092190390911A039093BB0070
:101090009091BC0093FDF8CF95EC01C095EE909334
:1010A000BC0090913F039230E1F390913D039F3F4C
:1010B00079F080913D03803241F080913D0380338F
:1010C00031F084E005C081E003C082E001C083E02C
:1010D00010924103109263031092400308952F92DF
:1010E0003F927F928F929F92AF92BF92CF92DF9268
:1010F000EF92FF920F931F93CF93DF9340911D04C4
:1011000050911E04FA01A191B19120901F043090DA
:10111000200401E010E098010215130508F069C0F1
:10112000E190F190AE15BF0518F4772473940AC0CE
:10113000EA16FB06A8F47A2F6B2FD701E72EF62EBE
:1011400077247A9480900F04909010045801AA0C90
:10115000BB1CA40EB51EE80160E070E0CB0138C0F6
:101160000F5F1F4FD8CF41E0741236C0F501C08029
:10117000D180EC14FD0408F440C0CE14DF0408F064
:1011800043C077247A94A7014C195D094D3051056D
:10119000A0F0AE01421B530B9A01289DA001299D8E
:1011A000500D389D500D1124E1E09A017E1236C099
:1011B000275A310925313240B0F15C2F4D2F0F5F96
:1011C0001F4FE2E0AE0EB11C9E01C52FD42FD601F9
:1011D0000215130540F22DC0FFEF7F1211C0F5017B
:1011E000408151814A175B0768F0A417B50788F062
:1011F0000BC060E070E0CB011CC0E801760104C0C8
:10120000712C02C0E801DA015C2F4D2F6D01E9015C
:10121000D6CF7A016D0177247394B5CF2759310960
:10122000253F394050F620E030E040E85FE3E9D464
:10123000C4CF20E030E64AEE56E495D620E030E810
:101240004BEB55E446D5ADD5CB01DF91CF911F9146
:101250000F91FF90EF90DF90CF90BF90AF909F9055
:101260008F907F903F902F900895CF93DF93CDB7CD
:10127000DEB7A1970FB6F894DEBF0FBECDBF78944E
:1012800084B5826084BD84B5816084BD85B582608B
:1012900085BD85B5816085BD80916E00816080933C
:1012A0006E001092810080918100826080938100A5
:1012B00080918100816080938100809180008160B5
:1012C000809380008091B10084608093B100809110
:1012D000B00081608093B000809191008260809323
:1012E00091008091910081608093910080919000A5
:1012F0008160809390008091A10082608093A10022
:101300008091A10081608093A1008091A000816004
:101310008093A000809121018260809321018091BF
:10132000210181608093210180912001816080935F
:10133000200180917A00846080937A0080917A0005
:10134000826080937A0080917A00816080937A0035
:1013500080917A00806880937A001092C100E091B9
:101360007403F091750382E08083E0917003F09143
:1013700071031082E0917203F091730380E1808326
:1013800010927C03E0917803F091790386E08083EA
:10139000E0917603F0917703808180618083E09112
:1013A0007603F0917703808188608083E0917603F3
:1013B000F0917703808180688083E0917603F091DB
:1013C000770380818F7D80831092F9021092F8025A
:1013D000109241031092630310923F0311E01093A7
:1013E0003E031092190361E084E13CDB61E085E19A
:1013F00039DB8091B9008E7F8093B9008091B9006C
:101400008D7F8093B90088E48093B80085E4809351
:10141000BC008EE591E09093F7028093F6028FE591
:1014200091E09093F5028093F40264E670E080E02E
:1014300090E078D81093400383E580936203109284
:101440004103109263038DE290E0E9DD88E090E0D3
:10145000E6DD81E0E8DD61E08CE082DB61E08CE0EC
:1014600001DB64EF71E080E090E05CD810923E0414
:1014700010923D0410923C0410923B0410923A04E6
:10148000109239048DE991E09093400480933F04D9
:1014900080912F0496EF980F943048F02EEC280F8F
:1014A000243028F022EC280F283008F072C02DEBF1
:1014B00030E030933A04209339042BE931E0309343
:1014C0003C0420933B042CE231E030933E04209313
:1014D0003D04943060F02EEC280F243040F022ECD4
:1014E000280F283008F072C2A8E6B0E071C2A8E662
:1014F000B0E0E8E6F0E02081943048F09EEC980FF0
:10150000943028F08E53883010F484E001C081E0DC
:10151000822B8C9380912F0496EF980F943058F083
:101520002EEC280F243038F022EC280F283030F031
:1015300020E030E005C02BE630E002C02DE630E0D0
:101540003093370420933604943010F49AEF0BC094
:10155000823381F0833381F0843381F092EC980FF1
:10156000983070F492EC980F81E001C0880F9A9542
:10157000EAF707C088E005C084E003C082E001C04C
:1015800081E08093380480913F049091400401975A
:10159000F1F780913D0490913E04892B49F1E0914F
:1015A000FC02F091FD0224E0E332F20709F13097EA
:1015B00039F0A389B4899C918589809589238C937E
:1015C000809141048E7F809341041092FB0210921F
:1015D000FA0283E294E09093FD028093FC02E09192
:1015E0003604F0913704908180913804892B8083F0
:1015F00083E294E09093FF028093FE0287E491E0FF
:1016000090930103809300036AE070E080E090E033
:101610000E94920286E080930302109205028EE1FE
:101620008093060213D90E9447019AE0C92ED12C5B
:10163000E12CF12C8090150490901604A0901704D2
:10164000B09018042091190430911A0440911B04A1
:1016500050911C04C501B40186D42B013C01A501A5
:10166000940160E070E080E89FE3CAD24B015C0126
:1016700080910D04863308F0865390917B00282FCB
:101680002870977F922B90937B0087708064809363
:101690007C0080917A00806480937A0080917A0047
:1016A000182F107486FDFACF609178008091790030
:1016B00070E0782B072E000C880B990BA0D3A501A6
:1016C000940151D4A30192019CD23B015C01609131
:1016D000110470911204072E000C880B990B8FD304
:1016E0002B014C019B01AC01B301C50138D4181684
:1016F00094F06091130470911404072E000C880B71
:10170000990B7DD32B014C019B01AC01B301C501A9
:10171000DCD287FF02C032015401C301D50180939E
:10172000190490931A04A0931B04B0931C04809096
:10173000210490902204880C991C80911D049091A2
:101740001E04880E991EB301C5012BD3F4017183C9
:1017500060838091210490912204019620911F04BE
:10176000309120048217930728F0109222041092DF
:10177000210404C0909322048093210462E370E06A
:1017800080E090E00E94920243E350E062E370E068
:1017900083E590E093D890930B0380930A0345E38D
:1017A00050E064E370E083E590E088D890930D0307
:1017B00080930C0347E350E066E370E083E590E03C
:1017C0007DD890930F0380930E038FB7F894809089
:1017D000020390900303A0900403B09005038FBF11
:1017E0008091060390910703A0910803B09109032B
:1017F000A5019401281B390B4A0B5B0BCA01B901E7
:10180000FED220E030E04AE754E463D22B013C01F1
:1018100060910A0370910B03072E000C880B990B43
:10182000EED22DEC3CEC4CEC51E453D2A3019201EE
:101830009AD32091100330911103409112035091DB
:101840001303DFD16093100370931103809312038D
:101850009093130360910C0370910D03072E000CFD
:10186000880B990BCCD22DEC3CEC4CEC51E431D2F2
:10187000A301920178D32091140330911503409174
:10188000160350911703BDD1609314037093150391
:101890008093160390931703809206039092070398
:1018A000A0920803B09209031ADC9C0140E050E0CA
:1018B00019A25E0181E2A80EB11CCA01B901A701FB
:1018C00096011ED4605DF50162935F01211531051B
:1018D0004105510591F7309759F001900020E9F743
:1018E0003197AF014A195B09B50184E693E06DDBDE
:1018F00042E050E068E472E084E693E066DB6091E9
:101900001003709111038091120390911303809042
:10191000140390901503A0901603B09017039B0139
:10192000AC0121D32B013C01A5019401C501B401F7
:101930001AD39B01AC01C301B20163D17BD320E078
:1019400030E048EC51E40BD3181634F086E10E94E5
:101950003A040E9435026ECEB0901803C0DB9C01A1
:10196000265431092431310558F08E36910528F07E
:101970008238910520F013E003C011E001C012E0AD
:1019800010931803B11207C064E670E080E090E0A5
:101990000E949202DECF123071F040F41123A1F0C8
:1019A0001130B9F681E00E94450405C0133031F0D2
:1019B000143039F0CECF82E00E94450483E00E94CB
:1019C000450483E00E94450488E1C1CFA0E0B0E077
:1019D000283008F48ECDE0E0F0E08DCD88E392E091
:1019E00090932404809323048091FC029091FD0243
:1019F0008352944071F4E0913604F0913704908161
:101A0000809138048095892380831092FD02109282
:101A1000FC020895109267031092660388EE93E02B
:101A2000A0E0B0E08093680390936903A0936A03F9
:101A3000B0936B0324E132E0309365032093640399
:101A400025EC30E0309371032093700324EC30E0F8
:101A5000309373032093720320EC30E030937503CE
:101A60002093740321EC30E03093770320937603C6
:101A700022EC30E0309379032093780326EC30E0B9
:101A800030937B0320937A0310927D0310927E03A0
:101A900010927F03109280031092040410920304AA
:101AA0008093050490930604A0930704B093080460
:101AB00026E232E0309302042093010410922604BF
:101AC000109225048093270490932804A09329045E
:101AD000B0932A0488E392E0909324048093230433
:101AE00010923A041092390410923C0410923B0474
:101AF00010923E0410923D041092400410923F0454
:101B0000609141046E7F6D7F6093410466956170C2
:101B100081E068278BE00E94320561E08BE020D8ED
:101B2000EDEEF1E0E491E0933304E7EAF1E0E491D3
:101B3000F0E0EE0FFF1FEE57FE4F859194919093CA
:101B400035048093340460E08AE00AD8809141042F
:101B500081FD04C061E08AE00E9432058AE0809342
:101B60002F04ECEEF1E0E491E0933004E6EAF1E0DA
:101B7000E491F0E0EE0FFF1FE859FE4F859194913C
:101B8000909332048093310410920E0410920D044D
:101B900086E292E0909312048093110482EC91E02B
:101BA000909314048093130480E090E0A0E4BFE3DA
:101BB0008093150490931604A0931704B09318040F
:101BC0001092190410921A0410921B0410921C0413
:101BD000109222041092210482E390E0909310046A
:101BE00080930F0488E790E09093200480931F0473
:101BF00080EF90E0C3D290931E0480931D0408955B
:101C00005058BB27AA270ED070C161D130F066D1E1
:101C100020F031F49F3F11F41EF456C10EF4E0950C
:101C2000E7FB4CC1E92F72D180F3BA176207730743
:101C30008407950718F071F49EF58AC10EF4E095BB
:101C40000B2EBA2FA02D0B01B90190010C01CA0176
:101C5000A0011124FF27591B99F0593F50F4503E21
:101C600068F11A16F040A22F232F342F4427585F13
:101C7000F3CF469537952795A795F0405395C9F72B
:101C80007EF41F16BA0B620B730B840BBAF09150E3
:101C9000A1F0FF0FBB1F661F771F881FC2F70EC082
:101CA000BA0F621F731F841F48F487957795679555
:101CB000B795F7959E3F08F0B3CF9395880F08F03E
:101CC0009927EE0F979587950895D4D008F481E071
:101CD00008950CD00AC102D140F0F9D030F021F4BF
:101CE0005F3F19F0EBC0511134C1EEC00FD198F332
:101CF0009923C9F35523B1F3951B550BBB27AA278D
:101D000062177307840738F09F5F5F4F220F331FFE
:101D1000441FAA1FA9F333D00E2E3AF0E0E830D0CA
:101D200091505040E695001CCAF729D0FE2F27D0CD
:101D3000660F771F881FBB1F261737074807AB079B
:101D4000B0E809F0BB0B802DBF01FF2793585F4F10
:101D50002AF09E3F510568F0B1C0FBC05F3FECF335
:101D6000983EDCF3869577956795B795F7959F5FD5
:101D7000C9F7880F911D9695879597F90895E1E029
:101D8000660F771F881FBB1F621773078407BA0788
:101D900020F0621B730B840BBA0BEE1F88F7E095E3
:101DA0000895BCD088F09F5790F0B92F9927B7516C
:101DB000A0F0D1F0660F771F881F991F1AF0BA950F
:101DC000C9F712C0B13081F0C3D0B1E00895C0C0EE
:101DD000672F782F8827B85F39F0B93FCCF3869505
:101DE00077956795B395D9F73EF490958095709562
:101DF00061957F4F8F4F9F4F0895E89409C097FBDF
:101E00003EF490958095709561957F4F8F4F9F4FD1
:101E10009923A9F0F92F96E9BB279395F695879515
:101E200077956795B795F111F8CFFAF4BB0F11F4D8
:101E300060FF1BC06F5F7F4F8F4F9F4F16C088237F
:101E400011F096E911C0772321F09EE8872F762FB5
:101E500005C0662371F096E8862F70E060E02AF0F6
:101E60009A95660F771F881FDAF7880F96958795E2
:101E700097F90895990F0008550FAA0BE0E8FEEFB7
:101E800016161706E807F907C0F012161306E4073E
:101E9000F50798F0621B730B840B950B39F40A2637
:101EA00061F0232B242B252B21F408950A2609F415
:101EB000A140A6958FEF811D811D089597F99F6719
:101EC00080E870E060E008959FEF80EC08950024C2
:101ED0000A941616170618060906089500240A948F
:101EE00012161306140605060895092E0394000C15
:101EF00011F4882352F0BB0F40F4BF2B11F460FFA4
:101F000004C06F5F7F4F8F4F9F4F089557FD9058CC
:101F1000440F551F59F05F3F71F04795880F97FBAD
:101F2000991F61F09F3F79F0879508951216130667
:101F30001406551FF2CF4695F1DF08C01616170696
:101F40001806991FF1CF86957105610508940895CB
:101F5000E894BB2766277727CB0197F908958ADF96
:101F600008F48FEF08950BD0C0CFB1DF28F0B6DFB3
:101F700018F0952309F0A2CFA7CF1124EACFC6DF2E
:101F8000A0F3959FD1F3950F50E0551F629FF0018C
:101F9000729FBB27F00DB11D639FAA27F00DB11DE5
:101FA000AA1F649F6627B00DA11D661F829F22276E
:101FB000B00DA11D621F739FB00DA11D621F839FF5
:101FC000A00D611D221F749F3327A00D611D231FCB
:101FD000849F600D211D822F762F6A2F11249F5719
:101FE00050408AF0E1F088234AF0EE0FFF1FBB1F3C
:101FF000661F771F881F91505040A9F79E3F5105DB
:1020000070F05CCFA6CF5F3FECF3983EDCF3869593
:1020100077956795B795F795E7959F5FC1F7FE2B85
:10202000880F911D9695879597F9089511F40EF4F0
:102030004BCF3EC073DFD0F39923D9F3CEF39F5734
:10204000550B87FF43D00024A0E640EA900180585A
:102050005695979528F4805C660F771F881F20F0AF
:1020600026173707480730F4621B730B840B2029AF
:1020700031294A2BA69517940794202531254A2704
:1020800058F7660F771F881F20F026173707480775
:1020900030F4620B730B840B200D311D411DA09594
:1020A00081F7B901842F9158880F969587950895E7
:1020B0009F3F31F0915020F4879577956795B795BC
:1020C000880F911D9695879597F9089591505040E6
:1020D000660F771F881FD2F7089597FB072E16F417
:1020E000009406D077FD08D035D007FC05D03EF42B
:1020F000909581959F4F0895709561957F4F0895B4
:10210000A1E21A2EAA1BBB1BFD010DC0AA1FBB1FFB
:10211000EE1FFF1FA217B307E407F50720F0A21B6D
:10212000B30BE40BF50B661F771F881F991F1A94DA
:1021300069F760957095809590959B01AC01BD0104
:10214000CF010895EE0FFF1F881F8BBF0790F691F8
:10215000E02D1994AA1BBB1B51E107C0AA1FBB1F8E
:10216000A617B70710F0A61BB70B881F991F5A9523
:10217000A9F780959095BC01CD0108950F931F9309
:10218000CF93DF938230910510F482E090E0E091EC
:102190004404F091450420E030E0A0E0B0E0309746
:1021A00019F1408151810281138148175907C8F004
:1021B0008417950769F4109731F012960C931297D3
:1021C00013961C9327C0009344041093450422C027
:1021D0002115310519F04217530718F49A01BD0172
:1021E000EF01DF01F801DBCF21153105F9F0281BE4
:1021F000390B2430310580F48A819B81611571058A
:1022000021F0FB019383828304C090934504809363
:102210004404FE01329644C0FE01E20FF31F819395
:10222000919322503109398328833AC02091420486
:1022300030914304232B41F420910C0230910D0284
:10224000309343042093420420910A0230910B0200
:102250002115310541F42DB73EB740910E02509142
:102260000F02241B350BE0914204F0914304E21766
:10227000F307A0F42E1B3F0B2817390778F0AC01A9
:102280004E5F5F4F2417350748F04E0F5F1F509386
:102290004304409342048193919302C0E0E0F0E054
:1022A000CF01DF91CF911F910F910895CF93DF93CD
:1022B000009709F481C0FC01329713821282A09129
:1022C0004404B0914504109781F420813181820F3C
:1022D000931F20914204309143042817390751F588
:1022E000F0934304E093420467C0ED0120E030E046
:1022F000CE17DF0740F44A815B819E0141155105ED
:10230000F1F0EA01F5CFD383C28340815181840F7C
:10231000951FC817D90759F488819981840F951F93
:102320000296918380838A819B8193838283211586
:10233000310529F4F0934504E09344043DC0E901DC
:10234000FB83EA8349915991C40FD51FEC17FD0710
:1023500061F480819181840F951F0296E901998330
:102360008883828193819B838A83E0E0F0E01296E8
:102370008D919C911397009719F0FD01DC01F7CF27
:102380008D919C9111979D012E5F3F4F820F931F5E
:1023900020914204309143042817390769F430979B
:1023A00029F4109245041092440402C01382128250
:1023B000B0934304A0934204DF91CF91089581E04C
:1023C00090E0F89400C011E0C5E1D1E000E005C064
:1023D000802FFE01B7DE2196011DC631D10780E0B6
:0823E0000807B1F7F894FFCFE4
:1023E8007EFF06000000000000EF000046048000A9
:1023F80000000000C801E5076001140291016F01A7
:10240800830100000000540328032304FC02200376
:102418000C03FD02000000009A03E5072304FC02F8
:0C242800EA030104820332000D0A0000E8
:00000001FF
